{
  "_format": "hh-sol-artifact-1",
  "contractName": "ReNonFungibleApes",
  "sourceName": "contracts/ReNonFungibleApes.sol",
  "abi": [
    {
      "inputs": [],
      "stateMutability": "nonpayable",
      "type": "constructor"
    },
    {
      "anonymous": false,
      "inputs": [
        {
          "indexed": true,
          "internalType": "address",
          "name": "owner",
          "type": "address"
        },
        {
          "indexed": true,
          "internalType": "address",
          "name": "approved",
          "type": "address"
        },
        {
          "indexed": true,
          "internalType": "uint256",
          "name": "tokenId",
          "type": "uint256"
        }
      ],
      "name": "Approval",
      "type": "event"
    },
    {
      "anonymous": false,
      "inputs": [
        {
          "indexed": true,
          "internalType": "address",
          "name": "owner",
          "type": "address"
        },
        {
          "indexed": true,
          "internalType": "address",
          "name": "operator",
          "type": "address"
        },
        {
          "indexed": false,
          "internalType": "bool",
          "name": "approved",
          "type": "bool"
        }
      ],
      "name": "ApprovalForAll",
      "type": "event"
    },
    {
      "anonymous": false,
      "inputs": [
        {
          "indexed": true,
          "internalType": "address",
          "name": "previousOwner",
          "type": "address"
        },
        {
          "indexed": true,
          "internalType": "address",
          "name": "newOwner",
          "type": "address"
        }
      ],
      "name": "OwnershipTransferred",
      "type": "event"
    },
    {
      "anonymous": false,
      "inputs": [
        {
          "indexed": true,
          "internalType": "address",
          "name": "from",
          "type": "address"
        },
        {
          "indexed": true,
          "internalType": "address",
          "name": "to",
          "type": "address"
        },
        {
          "indexed": true,
          "internalType": "uint256",
          "name": "tokenId",
          "type": "uint256"
        }
      ],
      "name": "Transfer",
      "type": "event"
    },
    {
      "inputs": [
        {
          "internalType": "address",
          "name": "to",
          "type": "address"
        },
        {
          "internalType": "uint256",
          "name": "tokenId",
          "type": "uint256"
        }
      ],
      "name": "approve",
      "outputs": [],
      "stateMutability": "nonpayable",
      "type": "function"
    },
    {
      "inputs": [
        {
          "internalType": "address",
          "name": "owner",
          "type": "address"
        }
      ],
      "name": "balanceOf",
      "outputs": [
        {
          "internalType": "uint256",
          "name": "",
          "type": "uint256"
        }
      ],
      "stateMutability": "view",
      "type": "function"
    },
    {
      "inputs": [
        {
          "internalType": "uint256",
          "name": "tokenId",
          "type": "uint256"
        }
      ],
      "name": "claim",
      "outputs": [],
      "stateMutability": "nonpayable",
      "type": "function"
    },
    {
      "inputs": [
        {
          "internalType": "uint256",
          "name": "tokenId",
          "type": "uint256"
        }
      ],
      "name": "getApproved",
      "outputs": [
        {
          "internalType": "address",
          "name": "",
          "type": "address"
        }
      ],
      "stateMutability": "view",
      "type": "function"
    },
    {
      "inputs": [
        {
          "internalType": "uint256",
          "name": "tokenId",
          "type": "uint256"
        }
      ],
      "name": "getBaseColor",
      "outputs": [
        {
          "internalType": "string",
          "name": "",
          "type": "string"
        }
      ],
      "stateMutability": "view",
      "type": "function"
    },
    {
      "inputs": [
        {
          "internalType": "uint256",
          "name": "tokenId",
          "type": "uint256"
        }
      ],
      "name": "getEye",
      "outputs": [
        {
          "internalType": "string",
          "name": "",
          "type": "string"
        }
      ],
      "stateMutability": "view",
      "type": "function"
    },
    {
      "inputs": [
        {
          "internalType": "uint256",
          "name": "tokenId",
          "type": "uint256"
        }
      ],
      "name": "getFaceColor",
      "outputs": [
        {
          "internalType": "string",
          "name": "",
          "type": "string"
        }
      ],
      "stateMutability": "view",
      "type": "function"
    },
    {
      "inputs": [
        {
          "internalType": "uint256",
          "name": "tokenId",
          "type": "uint256"
        }
      ],
      "name": "getFrame",
      "outputs": [
        {
          "internalType": "string",
          "name": "",
          "type": "string"
        }
      ],
      "stateMutability": "view",
      "type": "function"
    },
    {
      "inputs": [
        {
          "internalType": "uint256",
          "name": "tokenId",
          "type": "uint256"
        }
      ],
      "name": "getHat",
      "outputs": [
        {
          "internalType": "string",
          "name": "",
          "type": "string"
        }
      ],
      "stateMutability": "view",
      "type": "function"
    },
    {
      "inputs": [
        {
          "internalType": "uint256",
          "name": "tokenId",
          "type": "uint256"
        }
      ],
      "name": "getMouth",
      "outputs": [
        {
          "internalType": "string",
          "name": "",
          "type": "string"
        }
      ],
      "stateMutability": "view",
      "type": "function"
    },
    {
      "inputs": [
        {
          "internalType": "address",
          "name": "owner",
          "type": "address"
        },
        {
          "internalType": "address",
          "name": "operator",
          "type": "address"
        }
      ],
      "name": "isApprovedForAll",
      "outputs": [
        {
          "internalType": "bool",
          "name": "",
          "type": "bool"
        }
      ],
      "stateMutability": "view",
      "type": "function"
    },
    {
      "inputs": [],
      "name": "name",
      "outputs": [
        {
          "internalType": "string",
          "name": "",
          "type": "string"
        }
      ],
      "stateMutability": "view",
      "type": "function"
    },
    {
      "inputs": [],
      "name": "owner",
      "outputs": [
        {
          "internalType": "address",
          "name": "",
          "type": "address"
        }
      ],
      "stateMutability": "view",
      "type": "function"
    },
    {
      "inputs": [
        {
          "internalType": "uint256",
          "name": "tokenId",
          "type": "uint256"
        }
      ],
      "name": "ownerClaim",
      "outputs": [],
      "stateMutability": "nonpayable",
      "type": "function"
    },
    {
      "inputs": [
        {
          "internalType": "uint256",
          "name": "tokenId",
          "type": "uint256"
        }
      ],
      "name": "ownerOf",
      "outputs": [
        {
          "internalType": "address",
          "name": "",
          "type": "address"
        }
      ],
      "stateMutability": "view",
      "type": "function"
    },
    {
      "inputs": [],
      "name": "renounceOwnership",
      "outputs": [],
      "stateMutability": "nonpayable",
      "type": "function"
    },
    {
      "inputs": [
        {
          "internalType": "address",
          "name": "from",
          "type": "address"
        },
        {
          "internalType": "address",
          "name": "to",
          "type": "address"
        },
        {
          "internalType": "uint256",
          "name": "tokenId",
          "type": "uint256"
        }
      ],
      "name": "safeTransferFrom",
      "outputs": [],
      "stateMutability": "nonpayable",
      "type": "function"
    },
    {
      "inputs": [
        {
          "internalType": "address",
          "name": "from",
          "type": "address"
        },
        {
          "internalType": "address",
          "name": "to",
          "type": "address"
        },
        {
          "internalType": "uint256",
          "name": "tokenId",
          "type": "uint256"
        },
        {
          "internalType": "bytes",
          "name": "_data",
          "type": "bytes"
        }
      ],
      "name": "safeTransferFrom",
      "outputs": [],
      "stateMutability": "nonpayable",
      "type": "function"
    },
    {
      "inputs": [
        {
          "internalType": "address",
          "name": "operator",
          "type": "address"
        },
        {
          "internalType": "bool",
          "name": "approved",
          "type": "bool"
        }
      ],
      "name": "setApprovalForAll",
      "outputs": [],
      "stateMutability": "nonpayable",
      "type": "function"
    },
    {
      "inputs": [
        {
          "internalType": "bytes4",
          "name": "interfaceId",
          "type": "bytes4"
        }
      ],
      "name": "supportsInterface",
      "outputs": [
        {
          "internalType": "bool",
          "name": "",
          "type": "bool"
        }
      ],
      "stateMutability": "view",
      "type": "function"
    },
    {
      "inputs": [],
      "name": "symbol",
      "outputs": [
        {
          "internalType": "string",
          "name": "",
          "type": "string"
        }
      ],
      "stateMutability": "view",
      "type": "function"
    },
    {
      "inputs": [
        {
          "internalType": "uint256",
          "name": "index",
          "type": "uint256"
        }
      ],
      "name": "tokenByIndex",
      "outputs": [
        {
          "internalType": "uint256",
          "name": "",
          "type": "uint256"
        }
      ],
      "stateMutability": "view",
      "type": "function"
    },
    {
      "inputs": [
        {
          "internalType": "address",
          "name": "owner",
          "type": "address"
        },
        {
          "internalType": "uint256",
          "name": "index",
          "type": "uint256"
        }
      ],
      "name": "tokenOfOwnerByIndex",
      "outputs": [
        {
          "internalType": "uint256",
          "name": "",
          "type": "uint256"
        }
      ],
      "stateMutability": "view",
      "type": "function"
    },
    {
      "inputs": [
        {
          "internalType": "uint256",
          "name": "tokenId",
          "type": "uint256"
        }
      ],
      "name": "tokenURI",
      "outputs": [
        {
          "internalType": "string",
          "name": "",
          "type": "string"
        }
      ],
      "stateMutability": "view",
      "type": "function"
    },
    {
      "inputs": [],
      "name": "totalSupply",
      "outputs": [
        {
          "internalType": "uint256",
          "name": "",
          "type": "uint256"
        }
      ],
      "stateMutability": "view",
      "type": "function"
    },
    {
      "inputs": [
        {
          "internalType": "address",
          "name": "from",
          "type": "address"
        },
        {
          "internalType": "address",
          "name": "to",
          "type": "address"
        },
        {
          "internalType": "uint256",
          "name": "tokenId",
          "type": "uint256"
        }
      ],
      "name": "transferFrom",
      "outputs": [],
      "stateMutability": "nonpayable",
      "type": "function"
    },
    {
      "inputs": [
        {
          "internalType": "address",
          "name": "newOwner",
          "type": "address"
        }
      ],
      "name": "transferOwnership",
      "outputs": [],
      "stateMutability": "nonpayable",
      "type": "function"
    }
  ],
  "bytecode": "0x60096101609081526850616c652050696e6b60b81b610180526080908152600c6101a08181526b426c6f6f64204f72616e676560a01b6101c05260a052600b6101e09081526a4275726e74204f72616e6760a81b6102005260c052600a61022081815269477265656e204772657960b01b6102405260e052600d6102609081526c20b832a9bbb0b810213937bbb760991b61028052610100526102a090815269536d6f6b65204772657960b01b6102c0526101205261032060405260056102e090815264213937bbb760d91b6103005261014052620000e09160076200074d565b506040518060c001604052806040518060400160405280600981526020016827b930b733baba30b760b91b8152508152602001604051806040016040528060098152602001684461726b204772657960b81b81525081526020016040518060400160405280600681526020016526b0b937b7b760d11b81525081526020016040518060400160405280600a81526020016920b936bc9023b932b2b760b11b81525081526020016040518060400160405280600d81526020016c5a6f6d62696520507572706c6560981b81525081526020016040518060400160405280600581526020016412185e995b60da1b815250815250600d906006620001e4929190620007b1565b5060408051608081018252600a818301908152694d61696e204672616d6560b01b6060830152815281518083019092526007825266456172696e677360c81b6020838101919091528101919091526200024290600e90600262000803565b506040805161014081018252600461010082018181526327b832b760e11b610120840181905290835283518085018552600580825264486170707960d81b60208381018290528087019390935286518088018852828152645374616c6560d81b818501528688015286518088018852600a80825269084eac6d640a8cacae8d60b31b828601526060880191909152875180890189529081526908eded8c840a8dedee8d60b31b81850152608087015286518088018852600381526214d85960ea1b8185015260a0870152865180880188529182528183015260c085015284518086019095529184529083015260e08101919091526200034690600f90600862000855565b50604080516101a08101825260056101608201818152641419585c9b60da1b610180840152825282518084018452600680825265139bdc9b585b60d21b6020838101919091528085019290925284518086018652600f81526e50696e6b2053756e676c617373657360881b81840152848601528451808601865283815264486170707960d81b818401526060850152845180860186528181526553686164657360d01b818401526080850152845180860186529081526510db1bdcd95960d21b8183015260a084015283518085018552600a815269565220476f67676c657360b01b8183015260c084015283518085018552600e81526d5265642053756e676c617373657360901b8183015260e084015283518085018552600481526353616e7360e01b8183015261010084015283518085018552600881526714d85b9cc814995960c21b818301526101208401528351808501909452908352642630bd32b960d91b90830152610140810191909152620004c690601090600b620008a7565b50604080516101a081018252600961016082018181526854686972642065796560b81b61018084015282528251808401845290815268105cdd1c9bdb985d5d60ba1b6020828101919091528083019190915282518084018452600a80825269213937bbb7102430b4b960b11b8284015283850191909152835180850185528181526914ddd9585d0810985b9960b21b81840152606084015283518085018552600b8082526a2130b730b730902430b4b960a91b8285015260808501919091528451808601865260038152620436f760ec1b8185015260a0850152845180860186528181526a4461726b20436f77626f7960a81b8185015260c0850152845180860186528181526a50616c6520436f77626f7960a81b8185015260e08501528451808601865260058152642b34b9b7b960d91b81850152610100850152845180860186529182526952656420546173736c6560b01b828401526101208401919091528351808501909452600684526520bb30ba30b960d11b918401919091526101408201929092526200065c9160119190620008a7565b503480156200066a57600080fd5b50604080518082018252601d81527f526567656e657261746564204e6f6e2d66756e6769626c652041706573000000602080830191825283518085019094526004845263524e464160e01b908401528151919291620006cc91600091620008f9565b508051620006e2906001906020840190620008f9565b50506001600a5550620006f533620006fb565b62000a3b565b600b80546001600160a01b038381166001600160a01b0319831681179093556040519116919082907f8be0079c531659141344cd1fd0a4f28419497f9722a3daafe3b4186f6b6457e090600090a35050565b8280548282559060005260206000209081019282156200079f579160200282015b828111156200079f57825180516200078e918491602090910190620008f9565b50916020019190600101906200076e565b50620007ad92915062000984565b5090565b8280548282559060005260206000209081019282156200079f579160200282015b828111156200079f5782518051620007f2918491602090910190620008f9565b5091602001919060010190620007d2565b8280548282559060005260206000209081019282156200079f579160200282015b828111156200079f578251805162000844918491602090910190620008f9565b509160200191906001019062000824565b8280548282559060005260206000209081019282156200079f579160200282015b828111156200079f578251805162000896918491602090910190620008f9565b509160200191906001019062000876565b8280548282559060005260206000209081019282156200079f579160200282015b828111156200079f5782518051620008e8918491602090910190620008f9565b5091602001919060010190620008c8565b8280546200090790620009fe565b90600052602060002090601f0160209004810192826200092b576000855562000976565b82601f106200094657805160ff191683800117855562000976565b8280016001018555821562000976579182015b828111156200097657825182559160200191906001019062000959565b50620007ad929150620009a5565b80821115620007ad5760006200099b8282620009bc565b5060010162000984565b5b80821115620007ad5760008155600101620009a6565b508054620009ca90620009fe565b6000825580601f10620009db575050565b601f016020900490600052602060002090810190620009fb9190620009a5565b50565b600181811c9082168062000a1357607f821691505b6020821081141562000a3557634e487b7160e01b600052602260045260246000fd5b50919050565b612a7d8062000a4b6000396000f3fe608060405234801561001057600080fd5b50600436106101a95760003560e01c80636352211e116100f9578063b88d4fde11610097578063d2571f8811610071578063d2571f881461037b578063e985e9c51461038e578063f2fde38b146103ca578063feb6b3d1146103dd57600080fd5b8063b88d4fde14610342578063c1249e6a14610355578063c87b56dd1461036857600080fd5b8063773d51eb116100d3578063773d51eb146103035780638da5cb5b1461031657806395d89b4114610327578063a22cb4651461032f57600080fd5b80636352211e146102d557806370a08231146102e8578063715018a6146102fb57600080fd5b80632f745c591161016657806342842e0e1161014057806342842e0e14610289578063434f48c41461029c5780634ca6d96e146102af5780634f6ccce7146102c257600080fd5b80632f745c5914610250578063379607f5146102635780633cc79f5a1461027657600080fd5b806301ffc9a7146101ae57806306fdde03146101d6578063081812fc146101eb578063095ea7b31461021657806318160ddd1461022b57806323b872dd1461023d575b600080fd5b6101c16101bc366004612233565b6103f0565b60405190151581526020015b60405180910390f35b6101de61041b565b6040516101cd91906125d9565b6101fe6101f936600461226d565b6104ad565b6040516001600160a01b0390911681526020016101cd565b610229610224366004612209565b610547565b005b6008545b6040519081526020016101cd565b61022961024b3660046120b5565b61065d565b61022f61025e366004612209565b61068e565b61022961027136600461226d565b610724565b6101de61028436600461226d565b6107de565b6102296102973660046120b5565b6108d7565b6102296102aa36600461226d565b6108f2565b6101de6102bd36600461226d565b6109da565b61022f6102d036600461226d565b610ad1565b6101fe6102e336600461226d565b610b64565b61022f6102f6366004612060565b610bdb565b610229610c62565b6101de61031136600461226d565b610c98565b600b546001600160a01b03166101fe565b6101de610d8a565b61022961033d3660046121cd565b610d99565b6102296103503660046120f1565b610e5e565b6101de61036336600461226d565b610e96565b6101de61037636600461226d565b610f8d565b6101de61038936600461226d565b6111c3565b6101c161039c366004612082565b6001600160a01b03918216600090815260056020908152604080832093909416825291909152205460ff1690565b6102296103d8366004612060565b6112b3565b6101de6103eb36600461226d565b61134e565b60006001600160e01b0319821663780e9d6360e01b1480610415575061041582611440565b92915050565b60606000805461042a90612752565b80601f016020809104026020016040519081016040528092919081815260200182805461045690612752565b80156104a35780601f10610478576101008083540402835291602001916104a3565b820191906000526020600020905b81548152906001019060200180831161048657829003601f168201915b5050505050905090565b6000818152600260205260408120546001600160a01b031661052b5760405162461bcd60e51b815260206004820152602c60248201527f4552433732313a20617070726f76656420717565727920666f72206e6f6e657860448201526b34b9ba32b73a103a37b5b2b760a11b60648201526084015b60405180910390fd5b506000908152600460205260409020546001600160a01b031690565b600061055282610b64565b9050806001600160a01b0316836001600160a01b031614156105c05760405162461bcd60e51b815260206004820152602160248201527f4552433732313a20617070726f76616c20746f2063757272656e74206f776e656044820152603960f91b6064820152608401610522565b336001600160a01b03821614806105dc57506105dc813361039c565b61064e5760405162461bcd60e51b815260206004820152603860248201527f4552433732313a20617070726f76652063616c6c6572206973206e6f74206f7760448201527f6e6572206e6f7220617070726f76656420666f7220616c6c00000000000000006064820152608401610522565b6106588383611490565b505050565b61066733826114fe565b6106835760405162461bcd60e51b815260040161052290612673565b6106588383836115f5565b600061069983610bdb565b82106106fb5760405162461bcd60e51b815260206004820152602b60248201527f455243373231456e756d657261626c653a206f776e657220696e646578206f7560448201526a74206f6620626f756e647360a81b6064820152608401610522565b506001600160a01b03919091166000908152600660209081526040808320938352929052205490565b6002600a5414156107775760405162461bcd60e51b815260206004820152601f60248201527f5265656e7472616e637947756172643a207265656e7472616e742063616c6c006044820152606401610522565b6002600a55801580159061078c5750611e6281105b6107cb5760405162461bcd60e51b815260206004820152601060248201526f151bdad95b881251081a5b9d985b1a5960821b6044820152606401610522565b6107d6335b826117a0565b506001600a55565b6060610415826040518060400160405280600381526020016245594560e81b8152506010805480602002602001604051908101604052809291908181526020016000905b828210156108ce57838290600052602060002001805461084190612752565b80601f016020809104026020016040519081016040528092919081815260200182805461086d90612752565b80156108ba5780601f1061088f576101008083540402835291602001916108ba565b820191906000526020600020905b81548152906001019060200180831161089d57829003601f168201915b505050505081526020019060010190610822565b505050506117be565b61065883838360405180602001604052806000815250610e5e565b6002600a5414156109455760405162461bcd60e51b815260206004820152601f60248201527f5265656e7472616e637947756172643a207265656e7472616e742063616c6c006044820152606401610522565b6002600a55600b546001600160a01b031633146109745760405162461bcd60e51b81526004016105229061263e565b611e61811180156109865750611f4181105b6109c55760405162461bcd60e51b815260206004820152601060248201526f151bdad95b881251081a5b9d985b1a5960821b6044820152606401610522565b6107d66107d0600b546001600160a01b031690565b6060610415826040518060400160405280600a8152602001692120a9a2afa1a7a627a960b11b815250600d805480602002602001604051908101604052809291908181526020016000905b828210156108ce578382906000526020600020018054610a4490612752565b80601f0160208091040260200160405190810160405280929190818152602001828054610a7090612752565b8015610abd5780601f10610a9257610100808354040283529160200191610abd565b820191906000526020600020905b815481529060010190602001808311610aa057829003601f168201915b505050505081526020019060010190610a25565b6000610adc60085490565b8210610b3f5760405162461bcd60e51b815260206004820152602c60248201527f455243373231456e756d657261626c653a20676c6f62616c20696e646578206f60448201526b7574206f6620626f756e647360a01b6064820152608401610522565b60088281548110610b5257610b526127fe565b90600052602060002001549050919050565b6000818152600260205260408120546001600160a01b0316806104155760405162461bcd60e51b815260206004820152602960248201527f4552433732313a206f776e657220717565727920666f72206e6f6e657869737460448201526832b73a103a37b5b2b760b91b6064820152608401610522565b60006001600160a01b038216610c465760405162461bcd60e51b815260206004820152602a60248201527f4552433732313a2062616c616e636520717565727920666f7220746865207a65604482015269726f206164647265737360b01b6064820152608401610522565b506001600160a01b031660009081526003602052604090205490565b600b546001600160a01b03163314610c8c5760405162461bcd60e51b81526004016105229061263e565b610c96600061182c565b565b606061041582604051806040016040528060058152602001644652414d4560d81b815250600e805480602002602001604051908101604052809291908181526020016000905b828210156108ce578382906000526020600020018054610cfd90612752565b80601f0160208091040260200160405190810160405280929190818152602001828054610d2990612752565b8015610d765780601f10610d4b57610100808354040283529160200191610d76565b820191906000526020600020905b815481529060010190602001808311610d5957829003601f168201915b505050505081526020019060010190610cde565b60606001805461042a90612752565b6001600160a01b038216331415610df25760405162461bcd60e51b815260206004820152601960248201527f4552433732313a20617070726f766520746f2063616c6c6572000000000000006044820152606401610522565b3360008181526005602090815260408083206001600160a01b03871680855290835292819020805460ff191686151590811790915590519081529192917f17307eab39ab6107e8899845ad3d59bd9653f200f220920489ca2b5937696c31910160405180910390a35050565b610e6833836114fe565b610e845760405162461bcd60e51b815260040161052290612673565b610e908484848461187e565b50505050565b6060610415826040518060400160405280600a8152602001692320a1a2afa1a7a627a960b11b815250600c805480602002602001604051908101604052809291908181526020016000905b828210156108ce578382906000526020600020018054610f0090612752565b80601f0160208091040260200160405190810160405280929190818152602001828054610f2c90612752565b8015610f795780601f10610f4e57610100808354040283529160200191610f79565b820191906000526020600020905b815481529060010190602001808311610f5c57829003601f168201915b505050505081526020019060010190610ee1565b6060610f9761201c565b60405180610120016040528060fd815260200161294b60fd91398152610fbc83610e96565b8160016020020181905250604051806060016040528060288152602001612923602891396040820152610fee836109da565b60608083019190915260408051918201905260288082526128416020830139608082015261101b83610c98565b60a082015260408051606081019091526028808252612892602083013960c08201526110468361134e565b60e0820152604080516060810190915260298082526128ba6020830139610100820152611072836107de565b61012082015260408051606081019091526029808252612869602083013961014082015261109f836111c3565b610160820152604080518082018252600d81526c1e17ba32bc3a1f1e17b9bb339f60991b602080830191909152610180840191909152825181840151838501516060860151608087015160a088015160c089015160e08a01516101008b0151995160009a61110f9a909101612368565b60408051808303601f190181529082905261012084015161014085015161016086015161018087015193955061114a948694906020016122fd565b60405160208183030381529060405290506000611197611169866118b1565b611172846119af565b604051602001611183929190612429565b6040516020818303038152906040526119af565b9050806040516020016111aa9190612557565b60408051601f1981840301815291905295945050505050565b6060610415826040518060400160405280600381526020016212105560ea1b8152506011805480602002602001604051908101604052809291908181526020016000905b828210156108ce57838290600052602060002001805461122690612752565b80601f016020809104026020016040519081016040528092919081815260200182805461125290612752565b801561129f5780601f106112745761010080835404028352916020019161129f565b820191906000526020600020905b81548152906001019060200180831161128257829003601f168201915b505050505081526020019060010190611207565b600b546001600160a01b031633146112dd5760405162461bcd60e51b81526004016105229061263e565b6001600160a01b0381166113425760405162461bcd60e51b815260206004820152602660248201527f4f776e61626c653a206e6577206f776e657220697320746865207a65726f206160448201526564647265737360d01b6064820152608401610522565b61134b8161182c565b50565b6060610415826040518060400160405280600581526020016409a9eaaa8960db1b815250600f805480602002602001604051908101604052809291908181526020016000905b828210156108ce5783829060005260206000200180546113b390612752565b80601f01602080910402602001604051908101604052809291908181526020018280546113df90612752565b801561142c5780601f106114015761010080835404028352916020019161142c565b820191906000526020600020905b81548152906001019060200180831161140f57829003601f168201915b505050505081526020019060010190611394565b60006001600160e01b031982166380ac58cd60e01b148061147157506001600160e01b03198216635b5e139f60e01b145b8061041557506301ffc9a760e01b6001600160e01b0319831614610415565b600081815260046020526040902080546001600160a01b0319166001600160a01b03841690811790915581906114c582610b64565b6001600160a01b03167f8c5be1e5ebec7d5bd14f71427d1e84f3dd0314c0f7b2291e5b200ac8c7c3b92560405160405180910390a45050565b6000818152600260205260408120546001600160a01b03166115775760405162461bcd60e51b815260206004820152602c60248201527f4552433732313a206f70657261746f7220717565727920666f72206e6f6e657860448201526b34b9ba32b73a103a37b5b2b760a11b6064820152608401610522565b600061158283610b64565b9050806001600160a01b0316846001600160a01b031614806115bd5750836001600160a01b03166115b2846104ad565b6001600160a01b0316145b806115ed57506001600160a01b0380821660009081526005602090815260408083209388168352929052205460ff165b949350505050565b826001600160a01b031661160882610b64565b6001600160a01b0316146116705760405162461bcd60e51b815260206004820152602960248201527f4552433732313a207472616e73666572206f6620746f6b656e2074686174206960448201526839903737ba1037bbb760b91b6064820152608401610522565b6001600160a01b0382166116d25760405162461bcd60e51b8152602060048201526024808201527f4552433732313a207472616e7366657220746f20746865207a65726f206164646044820152637265737360e01b6064820152608401610522565b6116dd838383611b15565b6116e8600082611490565b6001600160a01b038316600090815260036020526040812080546001929061171190849061270f565b90915550506001600160a01b038216600090815260036020526040812080546001929061173f9084906126c4565b909155505060008181526002602052604080822080546001600160a01b0319166001600160a01b0386811691821790925591518493918716917fddf252ad1be2c89b69c2b068fc378daa952ba7f163c4a11628f55a4df523b3ef91a4505050565b6117ba828260405180602001604052806000815250611bcd565b5050565b606060006117f4846117cf876118b1565b6040516020016117e09291906122ce565b604051602081830303815290604052611c00565b905060008384518361180691906127a8565b81518110611816576118166127fe565b6020026020010151905080925050509392505050565b600b80546001600160a01b038381166001600160a01b0319831681179093556040519116919082907f8be0079c531659141344cd1fd0a4f28419497f9722a3daafe3b4186f6b6457e090600090a35050565b6118898484846115f5565b61189584848484611c31565b610e905760405162461bcd60e51b8152600401610522906125ec565b6060816118d55750506040805180820190915260018152600360fc1b602082015290565b8160005b81156118ff57806118e98161278d565b91506118f89050600a836126dc565b91506118d9565b60008167ffffffffffffffff81111561191a5761191a612814565b6040519080825280601f01601f191660200182016040528015611944576020820181803683370190505b5090505b84156115ed5761195960018361270f565b9150611966600a866127a8565b6119719060306126c4565b60f81b818381518110611986576119866127fe565b60200101906001600160f81b031916908160001a9053506119a8600a866126dc565b9450611948565b8051606090806119cf575050604080516020810190915260008152919050565b600060036119de8360026126c4565b6119e891906126dc565b6119f39060046126f0565b90506000611a028260206126c4565b67ffffffffffffffff811115611a1a57611a1a612814565b6040519080825280601f01601f191660200182016040528015611a44576020820181803683370190505b50905060006040518060600160405280604081526020016128e3604091399050600181016020830160005b86811015611ad0576003818a01810151603f601282901c8116860151600c83901c8216870151600684901c831688015192909316870151600891821b60ff94851601821b92841692909201901b91160160e01b835260049092019101611a6f565b506003860660018114611aea5760028114611afb57611b07565b613d3d60f01b600119830152611b07565b603d60f81b6000198301525b505050918152949350505050565b6001600160a01b038316611b7057611b6b81600880546000838152600960205260408120829055600182018355919091527ff3f7a9fe364faab93b216da50a3214154f22a0a2b415b23a84c8169e8b636ee30155565b611b93565b816001600160a01b0316836001600160a01b031614611b9357611b938382611d3e565b6001600160a01b038216611baa5761065881611ddb565b826001600160a01b0316826001600160a01b031614610658576106588282611e8a565b611bd78383611ece565b611be46000848484611c31565b6106585760405162461bcd60e51b8152600401610522906125ec565b600081604051602001611c1391906122b2565b60408051601f19818403018152919052805160209091012092915050565b60006001600160a01b0384163b15611d3357604051630a85bd0160e11b81526001600160a01b0385169063150b7a0290611c7590339089908890889060040161259c565b602060405180830381600087803b158015611c8f57600080fd5b505af1925050508015611cbf575060408051601f3d908101601f19168201909252611cbc91810190612250565b60015b611d19573d808015611ced576040519150601f19603f3d011682016040523d82523d6000602084013e611cf2565b606091505b508051611d115760405162461bcd60e51b8152600401610522906125ec565b805181602001fd5b6001600160e01b031916630a85bd0160e11b1490506115ed565b506001949350505050565b60006001611d4b84610bdb565b611d55919061270f565b600083815260076020526040902054909150808214611da8576001600160a01b03841660009081526006602090815260408083208584528252808320548484528184208190558352600790915290208190555b5060009182526007602090815260408084208490556001600160a01b039094168352600681528383209183525290812055565b600854600090611ded9060019061270f565b60008381526009602052604081205460088054939450909284908110611e1557611e156127fe565b906000526020600020015490508060088381548110611e3657611e366127fe565b6000918252602080832090910192909255828152600990915260408082208490558582528120556008805480611e6e57611e6e6127e8565b6001900381819060005260206000200160009055905550505050565b6000611e9583610bdb565b6001600160a01b039093166000908152600660209081526040808320868452825280832085905593825260079052919091209190915550565b6001600160a01b038216611f245760405162461bcd60e51b815260206004820181905260248201527f4552433732313a206d696e7420746f20746865207a65726f20616464726573736044820152606401610522565b6000818152600260205260409020546001600160a01b031615611f895760405162461bcd60e51b815260206004820152601c60248201527f4552433732313a20746f6b656e20616c7265616479206d696e746564000000006044820152606401610522565b611f9560008383611b15565b6001600160a01b0382166000908152600360205260408120805460019290611fbe9084906126c4565b909155505060008181526002602052604080822080546001600160a01b0319166001600160a01b03861690811790915590518392907fddf252ad1be2c89b69c2b068fc378daa952ba7f163c4a11628f55a4df523b3ef908290a45050565b6040518061026001604052806013905b606081526020019060019003908161202c5790505090565b80356001600160a01b038116811461205b57600080fd5b919050565b60006020828403121561207257600080fd5b61207b82612044565b9392505050565b6000806040838503121561209557600080fd5b61209e83612044565b91506120ac60208401612044565b90509250929050565b6000806000606084860312156120ca57600080fd5b6120d384612044565b92506120e160208501612044565b9150604084013590509250925092565b6000806000806080858703121561210757600080fd5b61211085612044565b935061211e60208601612044565b925060408501359150606085013567ffffffffffffffff8082111561214257600080fd5b818701915087601f83011261215657600080fd5b81358181111561216857612168612814565b604051601f8201601f19908116603f0116810190838211818310171561219057612190612814565b816040528281528a60208487010111156121a957600080fd5b82602086016020830137600060208483010152809550505050505092959194509250565b600080604083850312156121e057600080fd5b6121e983612044565b9150602083013580151581146121fe57600080fd5b809150509250929050565b6000806040838503121561221c57600080fd5b61222583612044565b946020939093013593505050565b60006020828403121561224557600080fd5b813561207b8161282a565b60006020828403121561226257600080fd5b815161207b8161282a565b60006020828403121561227f57600080fd5b5035919050565b6000815180845261229e816020860160208601612726565b601f01601f19169290920160200192915050565b600082516122c4818460208701612726565b9190910192915050565b600083516122e0818460208801612726565b8351908301906122f4818360208801612726565b01949350505050565b6000865161230f818460208b01612726565b865190830190612323818360208b01612726565b8651910190612336818360208a01612726565b8551910190612349818360208901612726565b845191019061235c818360208801612726565b01979650505050505050565b60008a5161237a818460208f01612726565b8a519083019061238e818360208f01612726565b8a516123a08183850160208f01612726565b8a519290910101906123b6818360208d01612726565b88519101906123c9818360208c01612726565b87516123db8183850160208c01612726565b87519290910101906123f1818360208a01612726565b85516124038183850160208a01612726565b8551929091010190612419818360208801612726565b019b9a5050505050505050505050565b707b226e616d65223a202252654e4641202360781b81528251600090612456816011850160208801612726565b7f222c20226465736372697074696f6e223a2022526567656e657261746564204e6011918401918201527f6f6e2d66756e6769626c652041706573202868747470733a2f2f61706573776160318201527f702e66696e616e63652f6e6674292e204174747269627574657320617265207360518201527f746f726564206f6e2d636861696e20696e207468652073766720666f726d617460718201527f2e222c2022696d616765223a2022646174613a696d6167652f7376672b786d6c6091820152670ed8985cd94d8d0b60c21b60b1820152835161253c8160b9840160208801612726565b61227d60f01b60b9929091019182015260bb01949350505050565b7f646174613a6170706c69636174696f6e2f6a736f6e3b6261736536342c00000081526000825161258f81601d850160208701612726565b91909101601d0192915050565b6001600160a01b03858116825284166020820152604081018390526080606082018190526000906125cf90830184612286565b9695505050505050565b60208152600061207b6020830184612286565b60208082526032908201527f4552433732313a207472616e7366657220746f206e6f6e20455243373231526560408201527131b2b4bb32b91034b6b83632b6b2b73a32b960711b606082015260800190565b6020808252818101527f4f776e61626c653a2063616c6c6572206973206e6f7420746865206f776e6572604082015260600190565b60208082526031908201527f4552433732313a207472616e736665722063616c6c6572206973206e6f74206f6040820152701ddb995c881b9bdc88185c1c1c9bdd9959607a1b606082015260800190565b600082198211156126d7576126d76127bc565b500190565b6000826126eb576126eb6127d2565b500490565b600081600019048311821515161561270a5761270a6127bc565b500290565b600082821015612721576127216127bc565b500390565b60005b83811015612741578181015183820152602001612729565b83811115610e905750506000910152565b600181811c9082168061276657607f821691505b6020821081141561278757634e487b7160e01b600052602260045260246000fd5b50919050565b60006000198214156127a1576127a16127bc565b5060010190565b6000826127b7576127b76127d2565b500690565b634e487b7160e01b600052601160045260246000fd5b634e487b7160e01b600052601260045260246000fd5b634e487b7160e01b600052603160045260246000fd5b634e487b7160e01b600052603260045260246000fd5b634e487b7160e01b600052604160045260246000fd5b6001600160e01b03198116811461134b57600080fdfe3c2f746578743e3c7465787420783d2231302220793d2236302220636c6173733d2262617365223e3c2f746578743e3c7465787420783d2231302220793d223132302220636c6173733d2262617365223e3c2f746578743e3c7465787420783d2231302220793d2238302220636c6173733d2262617365223e3c2f746578743e3c7465787420783d2231302220793d223130302220636c6173733d2262617365223e4142434445464748494a4b4c4d4e4f505152535455565758595a6162636465666768696a6b6c6d6e6f707172737475767778797a303132333435363738392b2f3c2f746578743e3c7465787420783d2231302220793d2234302220636c6173733d2262617365223e3c73766720786d6c6e733d22687474703a2f2f7777772e77332e6f72672f323030302f73766722207072657365727665417370656374526174696f3d22784d696e594d696e206d656574222076696577426f783d223020302033353020333530223e3c7374796c653e2e62617365207b2066696c6c3a20626c61636b3b20666f6e742d66616d696c793a2073657269663b20666f6e742d73697a653a20313470783b207d3c2f7374796c653e3c726563742077696474683d223130302522206865696768743d2231303025222066696c6c3d22776869746522202f3e3c7465787420783d2231302220793d2232302220636c6173733d2262617365223ea2646970667358221220a26c318941905b69218b6f923ae81b083c4444bd604d0468a2fc9a95841f32d964736f6c63430008070033",
  "linkReferences": {},
  "deployedLinkReferences": {}
}